{
  "contractName": "Election",
  "abi": [
    {
      "inputs": [
        {
          "internalType": "string",
          "name": "_constituencyName",
          "type": "string"
        }
      ],
      "stateMutability": "nonpayable",
      "type": "constructor"
    },
    {
      "anonymous": false,
      "inputs": [
        {
          "indexed": false,
          "internalType": "uint256",
          "name": "candidate_number",
          "type": "uint256"
        },
        {
          "indexed": false,
          "internalType": "string",
          "name": "candidateName",
          "type": "string"
        },
        {
          "indexed": false,
          "internalType": "string",
          "name": "candidateParty",
          "type": "string"
        }
      ],
      "name": "CandidateAdded",
      "type": "event"
    },
    {
      "anonymous": false,
      "inputs": [
        {
          "indexed": false,
          "internalType": "string",
          "name": "electionEnded",
          "type": "string"
        }
      ],
      "name": "ElectionEnded",
      "type": "event"
    },
    {
      "anonymous": false,
      "inputs": [
        {
          "indexed": true,
          "internalType": "address",
          "name": "voter",
          "type": "address"
        }
      ],
      "name": "Voted",
      "type": "event"
    },
    {
      "anonymous": false,
      "inputs": [
        {
          "indexed": true,
          "internalType": "address",
          "name": "voter",
          "type": "address"
        }
      ],
      "name": "VoterAdded",
      "type": "event"
    },
    {
      "inputs": [
        {
          "internalType": "uint256",
          "name": "",
          "type": "uint256"
        }
      ],
      "name": "Candidates",
      "outputs": [
        {
          "internalType": "uint256",
          "name": "id",
          "type": "uint256"
        },
        {
          "internalType": "string",
          "name": "name",
          "type": "string"
        },
        {
          "internalType": "string",
          "name": "party_name",
          "type": "string"
        },
        {
          "internalType": "uint256",
          "name": "vote_count",
          "type": "uint256"
        }
      ],
      "stateMutability": "view",
      "type": "function",
      "constant": true
    },
    {
      "inputs": [],
      "name": "Chairperson",
      "outputs": [
        {
          "internalType": "address",
          "name": "",
          "type": "address"
        }
      ],
      "stateMutability": "view",
      "type": "function",
      "constant": true
    },
    {
      "inputs": [],
      "name": "Contituency",
      "outputs": [
        {
          "internalType": "string",
          "name": "",
          "type": "string"
        }
      ],
      "stateMutability": "view",
      "type": "function",
      "constant": true
    },
    {
      "inputs": [
        {
          "internalType": "address",
          "name": "",
          "type": "address"
        }
      ],
      "name": "Voters",
      "outputs": [
        {
          "internalType": "bool",
          "name": "hasVoted",
          "type": "bool"
        },
        {
          "internalType": "bool",
          "name": "canVote",
          "type": "bool"
        }
      ],
      "stateMutability": "view",
      "type": "function",
      "constant": true
    },
    {
      "inputs": [],
      "name": "totalCandidates",
      "outputs": [
        {
          "internalType": "uint256",
          "name": "",
          "type": "uint256"
        }
      ],
      "stateMutability": "view",
      "type": "function",
      "constant": true
    },
    {
      "inputs": [],
      "name": "totalVotersInConstituency",
      "outputs": [
        {
          "internalType": "uint256",
          "name": "",
          "type": "uint256"
        }
      ],
      "stateMutability": "view",
      "type": "function",
      "constant": true
    },
    {
      "inputs": [],
      "name": "totalVotesCasted",
      "outputs": [
        {
          "internalType": "uint256",
          "name": "",
          "type": "uint256"
        }
      ],
      "stateMutability": "view",
      "type": "function",
      "constant": true
    },
    {
      "inputs": [
        {
          "internalType": "string",
          "name": "_name",
          "type": "string"
        },
        {
          "internalType": "string",
          "name": "_party_name",
          "type": "string"
        }
      ],
      "name": "addCandiate",
      "outputs": [],
      "stateMutability": "nonpayable",
      "type": "function"
    },
    {
      "inputs": [
        {
          "internalType": "address",
          "name": "_voter",
          "type": "address"
        }
      ],
      "name": "addVoter",
      "outputs": [],
      "stateMutability": "nonpayable",
      "type": "function"
    },
    {
      "inputs": [
        {
          "internalType": "uint256",
          "name": "_candidateNumber",
          "type": "uint256"
        }
      ],
      "name": "calculateVotes",
      "outputs": [
        {
          "internalType": "uint256",
          "name": "_voteCount",
          "type": "uint256"
        }
      ],
      "stateMutability": "view",
      "type": "function",
      "constant": true
    },
    {
      "inputs": [
        {
          "internalType": "uint256",
          "name": "_candidateNumber",
          "type": "uint256"
        }
      ],
      "name": "vote",
      "outputs": [],
      "stateMutability": "nonpayable",
      "type": "function"
    }
  ],
  "bytecode": "0x60806040523480156200001157600080fd5b506040516200191038038062001910833981810160405260208110156200003757600080fd5b81019080805160405193929190846401000000008211156200005857600080fd5b838201915060208201858111156200006f57600080fd5b82518660018202830111640100000000821117156200008d57600080fd5b8083526020830192505050908051906020019080838360005b83811015620000c3578082015181840152602081019050620000a6565b50505050905090810190601f168015620000f15780820380516001836020036101000a031916815260200191505b5060405250505033600160006101000a81548173ffffffffffffffffffffffffffffffffffffffff021916908373ffffffffffffffffffffffffffffffffffffffff16021790555080600090805190602001906200015192919062000719565b50620001ce6040518060400160405280600d81526020017f4e6172656e647261204d6f6469000000000000000000000000000000000000008152506040518060400160405280600381526020017f424a5000000000000000000000000000000000000000000000000000000000008152506200031760201b60201c565b6200024a6040518060400160405280600c81526020017f526168756c2047616e64686900000000000000000000000000000000000000008152506040518060400160405280600881526020017f436f6e67726573730000000000000000000000000000000000000000000000008152506200031760201b60201c565b620002c66040518060400160405280600f81526020017f417276696e64204b656a726977616c00000000000000000000000000000000008152506040518060400160405280600381526020017f41415000000000000000000000000000000000000000000000000000000000008152506200031760201b60201c565b620002eb73ce338fd4a5d0690704c6f3ff9792ac4f6ee5a1b16200057c60201b60201c565b6200031073f153ef81265350ee2f6085d8607ab4eaafb533e96200057c60201b60201c565b506200084f565b600160009054906101000a900473ffffffffffffffffffffffffffffffffffffffff1673ffffffffffffffffffffffffffffffffffffffff163373ffffffffffffffffffffffffffffffffffffffff1614620003bf576040517f08c379a0000000000000000000000000000000000000000000000000000000008152600401808060200182810382526027815260200180620018e96027913960400191505060405180910390fd5b60036000815480929190600101919050555060405180608001604052806003548152602001838152602001828152602001600081525060056000600354815260200190815260200160002060008201518160000155602082015181600101908051906020019062000432929190620007a0565b50604082015181600201908051906020019062000451929190620007a0565b50606082015181600301559050507fe64f834082661dd9ed89427b87edb6270fd6dad17198b0938f0edd058914c87f6003548383604051808481526020018060200180602001838103835285818151815260200191508051906020019080838360005b83811015620004d1578082015181840152602081019050620004b4565b50505050905090810190601f168015620004ff5780820380516001836020036101000a031916815260200191505b50838103825284818151815260200191508051906020019080838360005b838110156200053a5780820151818401526020810190506200051d565b50505050905090810190601f168015620005685780820380516001836020036101000a031916815260200191505b509550505050505060405180910390a15050565b600160009054906101000a900473ffffffffffffffffffffffffffffffffffffffff1673ffffffffffffffffffffffffffffffffffffffff163373ffffffffffffffffffffffffffffffffffffffff161462000624576040517f08c379a0000000000000000000000000000000000000000000000000000000008152600401808060200182810382526027815260200180620018e96027913960400191505060405180910390fd5b604051806040016040528060001515815260200160011515815250600660008373ffffffffffffffffffffffffffffffffffffffff1673ffffffffffffffffffffffffffffffffffffffff16815260200190815260200160002060008201518160000160006101000a81548160ff02191690831515021790555060208201518160000160016101000a81548160ff0219169083151502179055509050506004600081548092919060010191905055503373ffffffffffffffffffffffffffffffffffffffff167fa636f4a11e2d3ba7f89d042ecb0a6b886716e98cd49d8fd876ee0f73bced42b860405160405180910390a250565b828054600181600116156101000203166002900490600052602060002090601f016020900481019282601f106200075c57805160ff19168380011785556200078d565b828001600101855582156200078d579182015b828111156200078c5782518255916020019190600101906200076f565b5b5090506200079c919062000827565b5090565b828054600181600116156101000203166002900490600052602060002090601f016020900481019282601f10620007e357805160ff191683800117855562000814565b8280016001018555821562000814579182015b8281111562000813578251825591602001919060010190620007f6565b5b50905062000823919062000827565b5090565b6200084c91905b80821115620008485760008160009055506001016200082e565b5090565b90565b61108a806200085f6000396000f3fe608060405234801561001057600080fd5b50600436106100a95760003560e01c806390ac3ccf1161007157806390ac3ccf146102bc578063ae6c1912146102fe578063bb2cc25e14610348578063f4ab9adf14610366578063fd5ef11b146103aa578063fdedaa8a146104fc576100a9565b80630121b93f146100ae578063290e9212146100dc5780633866965c146101fd5780637c99279a1461021b5780638c66a54c14610239575b600080fd5b6100da600480360360208110156100c457600080fd5b8101908080359060200190929190505050610563565b005b610108600480360360208110156100f257600080fd5b810190808035906020019092919050505061082a565b604051808581526020018060200180602001848152602001838103835286818151815260200191508051906020019080838360005b8381101561015857808201518184015260208101905061013d565b50505050905090810190601f1680156101855780820380516001836020036101000a031916815260200191505b50838103825285818151815260200191508051906020019080838360005b838110156101be5780820151818401526020810190506101a3565b50505050905090810190601f1680156101eb5780820380516001836020036101000a031916815260200191505b50965050505050505060405180910390f35b61020561098a565b6040518082815260200191505060405180910390f35b610223610990565b6040518082815260200191505060405180910390f35b610241610996565b6040518080602001828103825283818151815260200191508051906020019080838360005b83811015610281578082015181840152602081019050610266565b50505050905090810190601f1680156102ae5780820380516001836020036101000a031916815260200191505b509250505060405180910390f35b6102e8600480360360208110156102d257600080fd5b8101908080359060200190929190505050610a34565b6040518082815260200191505060405180910390f35b610306610afa565b604051808273ffffffffffffffffffffffffffffffffffffffff1673ffffffffffffffffffffffffffffffffffffffff16815260200191505060405180910390f35b610350610b20565b6040518082815260200191505060405180910390f35b6103a86004803603602081101561037c57600080fd5b81019080803573ffffffffffffffffffffffffffffffffffffffff169060200190929190505050610b26565b005b6104fa600480360360408110156103c057600080fd5b81019080803590602001906401000000008111156103dd57600080fd5b8201836020820111156103ef57600080fd5b8035906020019184600183028401116401000000008311171561041157600080fd5b91908080601f016020809104026020016040519081016040528093929190818152602001838380828437600081840152601f19601f8201169050808301925050505050505091929192908035906020019064010000000081111561047457600080fd5b82018360208201111561048657600080fd5b803590602001918460018302840111640100000000831117156104a857600080fd5b91908080601f016020809104026020016040519081016040528093929190818152602001838380828437600081840152601f19601f820116905080830192505050505050509192919290505050610cc1565b005b61053e6004803603602081101561051257600080fd5b81019080803573ffffffffffffffffffffffffffffffffffffffff169060200190929190505050610f1a565b6040518083151515158152602001821515151581526020019250505060405180910390f35b8060008111801561057657506003548111155b6105e8576040517f08c379a000000000000000000000000000000000000000000000000000000000815260040180806020018281038252601e8152602001807f43616e646964617465204e756d62657220646f65736e2774206578697374000081525060200191505060405180910390fd5b600660003373ffffffffffffffffffffffffffffffffffffffff1673ffffffffffffffffffffffffffffffffffffffff16815260200190815260200160002060000160019054906101000a900460ff1661068d576040517f08c379a0000000000000000000000000000000000000000000000000000000008152600401808060200182810382526030815260200180610ffe6030913960400191505060405180910390fd5b600660003373ffffffffffffffffffffffffffffffffffffffff1673ffffffffffffffffffffffffffffffffffffffff16815260200190815260200160002060000160009054906101000a900460ff1615610750576040517f08c379a00000000000000000000000000000000000000000000000000000000081526004018080602001828103825260188152602001807f20596f752063616e206f6e6c7920766f7465206f6e636520000000000000000081525060200191505060405180910390fd5b6001600660003373ffffffffffffffffffffffffffffffffffffffff1673ffffffffffffffffffffffffffffffffffffffff16815260200190815260200160002060000160006101000a81548160ff02191690831515021790555060056000838152602001908152602001600020600301600081548092919060010191905055506002600081548092919060010191905055503373ffffffffffffffffffffffffffffffffffffffff167f16a9aa39af49f169911e977347975198c503525f7240d6892a626f0227642fce60405160405180910390a25050565b6005602052806000526040600020600091509050806000015490806001018054600181600116156101000203166002900480601f0160208091040260200160405190810160405280929190818152602001828054600181600116156101000203166002900480156108dc5780601f106108b1576101008083540402835291602001916108dc565b820191906000526020600020905b8154815290600101906020018083116108bf57829003601f168201915b505050505090806002018054600181600116156101000203166002900480601f01602080910402602001604051908101604052809291908181526020018280546001816001161561010002031660029004801561097a5780601f1061094f5761010080835404028352916020019161097a565b820191906000526020600020905b81548152906001019060200180831161095d57829003601f168201915b5050505050908060030154905084565b60035481565b60025481565b60008054600181600116156101000203166002900480601f016020809104026020016040519081016040528092919081815260200182805460018160011615610100020316600290048015610a2c5780601f10610a0157610100808354040283529160200191610a2c565b820191906000526020600020905b815481529060010190602001808311610a0f57829003601f168201915b505050505081565b6000600160009054906101000a900473ffffffffffffffffffffffffffffffffffffffff1673ffffffffffffffffffffffffffffffffffffffff163373ffffffffffffffffffffffffffffffffffffffff1614610adc576040517f08c379a000000000000000000000000000000000000000000000000000000000815260040180806020018281038252602781526020018061102e6027913960400191505060405180910390fd5b60056000838152602001908152602001600020600301549050919050565b600160009054906101000a900473ffffffffffffffffffffffffffffffffffffffff1681565b60045481565b600160009054906101000a900473ffffffffffffffffffffffffffffffffffffffff1673ffffffffffffffffffffffffffffffffffffffff163373ffffffffffffffffffffffffffffffffffffffff1614610bcc576040517f08c379a000000000000000000000000000000000000000000000000000000000815260040180806020018281038252602781526020018061102e6027913960400191505060405180910390fd5b604051806040016040528060001515815260200160011515815250600660008373ffffffffffffffffffffffffffffffffffffffff1673ffffffffffffffffffffffffffffffffffffffff16815260200190815260200160002060008201518160000160006101000a81548160ff02191690831515021790555060208201518160000160016101000a81548160ff0219169083151502179055509050506004600081548092919060010191905055503373ffffffffffffffffffffffffffffffffffffffff167fa636f4a11e2d3ba7f89d042ecb0a6b886716e98cd49d8fd876ee0f73bced42b860405160405180910390a250565b600160009054906101000a900473ffffffffffffffffffffffffffffffffffffffff1673ffffffffffffffffffffffffffffffffffffffff163373ffffffffffffffffffffffffffffffffffffffff1614610d67576040517f08c379a000000000000000000000000000000000000000000000000000000000815260040180806020018281038252602781526020018061102e6027913960400191505060405180910390fd5b600360008154809291906001019190505550604051806080016040528060035481526020018381526020018281526020016000815250600560006003548152602001908152602001600020600082015181600001556020820151816001019080519060200190610dd8929190610f58565b506040820151816002019080519060200190610df5929190610f58565b50606082015181600301559050507fe64f834082661dd9ed89427b87edb6270fd6dad17198b0938f0edd058914c87f6003548383604051808481526020018060200180602001838103835285818151815260200191508051906020019080838360005b83811015610e73578082015181840152602081019050610e58565b50505050905090810190601f168015610ea05780820380516001836020036101000a031916815260200191505b50838103825284818151815260200191508051906020019080838360005b83811015610ed9578082015181840152602081019050610ebe565b50505050905090810190601f168015610f065780820380516001836020036101000a031916815260200191505b509550505050505060405180910390a15050565b60066020528060005260406000206000915090508060000160009054906101000a900460ff16908060000160019054906101000a900460ff16905082565b828054600181600116156101000203166002900490600052602060002090601f016020900481019282601f10610f9957805160ff1916838001178555610fc7565b82800160010185558215610fc7579182015b82811115610fc6578251825591602001919060010190610fab565b5b509050610fd49190610fd8565b5090565b610ffa91905b80821115610ff6576000816000905550600101610fde565b5090565b9056fe596f7520617265206e6f7420616c6c6f77656420746f20766f746520696e207468697320636f6e7374697475656e637920596f7520617265206e6f7420746865204f776e6572206f66207468697320436f6e7472616374a2646970667358221220fa76a5a17681b482063125f4b785f8d8924880148bccd175941948a72dddafab64736f6c6343000601003320596f7520617265206e6f7420746865204f776e6572206f66207468697320436f6e7472616374",
  "source": "pragma solidity ^0.6.1;\r\n\r\ncontract Election{\r\n    /*\r\n    \r\n    possible Improvements\r\n    a. Add the ending time of auction\r\n    b. Make the votes hidden from public otherwise they can see the vote of who voted\r\n    \r\n    */\r\n    \r\n    string public Contituency;                  //name of Contituency\r\n    address public Chairperson;                 //name of Owner Of contract (usually Election Commision)\r\n    uint public totalVotesCasted;\r\n    uint public totalCandidates;\r\n    uint public totalVotersInConstituency;\r\n    \r\n    //modifier\r\n    modifier onlyOwner() {\r\n        require(msg.sender == Chairperson , \" You are not the Owner of this Contract\");\r\n        _;\r\n    }\r\n    \r\n    modifier numshouldExist (uint num){\r\n        require(num > 0 && num <= totalCandidates, \"Candidate Number doesn't exist\");\r\n        _;\r\n    }\r\n    \r\n    \r\n    //events\r\n    event Voted(address indexed voter);\r\n    event CandidateAdded(uint candidate_number , string  candidateName , string  candidateParty);\r\n    event VoterAdded(address indexed voter);\r\n    event ElectionEnded(string  electionEnded);\r\n    \r\n    \r\n    //structs\r\n    struct Candidate{\r\n        uint id;\r\n        string name;\r\n        string party_name;\r\n        uint vote_count;\r\n        \r\n    }\r\n    \r\n    struct Voter{\r\n        bool hasVoted;\r\n        bool canVote;\r\n    }\r\n    \r\n    \r\n    //mappings\r\n    mapping (uint => Candidate) public Candidates;\r\n    mapping (address => Voter) public Voters;\r\n    \r\n    \r\n    constructor(string memory _constituencyName ) public{\r\n        Chairperson = msg.sender;\r\n        Contituency = _constituencyName;\r\n        addCandiate(\"Narendra Modi\",\"BJP\");\r\n        addCandiate(\"Rahul Gandhi\",\"Congress\");\r\n        addCandiate(\"Arvind Kejriwal\" , \"AAP\");\r\n        addVoter(0xcE338Fd4A5d0690704C6F3Ff9792AC4f6EE5a1B1);\r\n        addVoter(0xF153Ef81265350ee2f6085d8607aB4eaAFB533e9);\r\n        \r\n        // addVoter(0xAb8483F64d9C6d1EcF9b849Ae677dD3315835cb2); // should be added manually\r\n        // addVoter(0x4B20993Bc481177ec7E8f571ceCaE8A9e22C02db); \r\n    }\r\n    \r\n    \r\n    //functions\r\n    function addCandiate(string memory _name , string memory _party_name ) public onlyOwner {\r\n        totalCandidates++;\r\n        Candidates[totalCandidates] = Candidate(totalCandidates , _name , _party_name,0);\r\n        emit CandidateAdded(totalCandidates , _name , _party_name);\r\n        \r\n    }\r\n    \r\n    function addVoter(address _voter) public onlyOwner {\r\n        \r\n        Voters[_voter] = Voter( false , true);\r\n        totalVotersInConstituency++;\r\n        emit VoterAdded(msg.sender);\r\n    }\r\n    \r\n    function calculateVotes(uint _candidateNumber) public view onlyOwner returns (uint _voteCount)  { \r\n        _voteCount =  Candidates[_candidateNumber].vote_count;\r\n       \r\n    }\r\n    \r\n    function vote (uint _candidateNumber) public numshouldExist(_candidateNumber) {\r\n        require( Voters[msg.sender].canVote , \"You are not allowed to vote in this constituency\"); // person should be in voting list\r\n        require( !Voters[msg.sender].hasVoted, \" You can only vote once \"); //person should not have voted before\r\n        \r\n        Voters[msg.sender].hasVoted = true; // voter can't vote more than one time\r\n        \r\n        Candidates[_candidateNumber].vote_count++;\r\n        totalVotesCasted++;\r\n        emit Voted(msg.sender);\r\n    }\r\n    \r\n}",
  "sourcePath": "D:/lost-votes-count/contracts/Election.sol",
  "compiler": {
    "name": "solc",
    "version": "0.6.1+commit.e6f7d5a4.Emscripten.clang"
  },
  "schemaVersion": "3.0.20",
  "updatedAt": "2020-10-24T14:54:59.722Z",
  "networkType": "ethereum",
  "devdoc": {
    "methods": {}
  },
  "userdoc": {
    "methods": {}
  }
}